:100000000C9461000C947E000C947E000C947E0095
:100010000C947E000C947E000C947E000C947E0068
:100020000C947E000C947E000C947E000C947E0058
:100030000C947E000C947E000C947E000C947E0048
:100040000C9408010C947E000C947E000C947E00AD
:100050000C947E000C947E000C947E000C947E0028
:100060000C947E000C947E0000000000230026000B
:10007000290000000000240027002A0000000000E2
:10008000250028002B0004040404040404040202D4
:100090000202020203030303030301020408102007
:1000A0004080010204081020010204081020000012
:1000B0000008000201000003040700000000000027
:1000C000000011241FBECFEFD8E0DEBFCDBF11E08E
:1000D000A0E0B1E0ECE7F5E002C005900D92A030A1
:1000E000B107D9F721E0A0E0B1E001C01D92A9302D
:1000F000B207E1F70E9452010C94BC020C9400007C
:10010000833081F028F4813099F08230A9F008958D
:100110008730A9F08830C9F08430B1F48091800034
:100120008F7D03C0809180008F7780938000089539
:1001300084B58F7784BD089584B58F7DFBCF809182
:10014000B0008F778093B00008958091B0008F7DCC
:10015000F9CF1F93CF93DF93282F30E0F901E255B9
:10016000FF4F8491F901E656FF4FD491F901EA5708
:10017000FF4FC491CC23A9F0162F81110E9480005B
:10018000EC2FF0E0EE0FFF1FE458FF4FA591B49164
:100190008FB7F894EC91111108C0D095DE23DC9351
:1001A0008FBFDF91CF911F910895DE2BF8CFCF93B2
:1001B000DF9390E0FC01E656FF4F24918A579F4F52
:1001C000FC0184918823D1F090E0880F991FFC01F5
:1001D000EE58FF4FA591B491FC01E458FF4FC59133
:1001E000D49161110EC09FB7F8948C91E22FE095E5
:1001F0008E238C932881E223E8839FBFDF91CF91E8
:1002000008958FB7F894EC91E22BEC938FBFF6CF63
:100210001F920F920FB60F9211242F933F938F933B
:100220009F93AF93BF938091050190910601A09198
:100230000701B09108013091040123E0230F2D370D
:1002400058F50196A11DB11D20930401809305016D
:1002500090930601A0930701B093080180910001DB
:1002600090910101A0910201B09103010196A11D9D
:10027000B11D8093000190930101A0930201B093FE
:100280000301BF91AF919F918F913F912F910F905B
:100290000FBE0F901F90189526E8230F0296A11D00
:1002A000B11DD2CF789484B5826084BD84B581605D
:1002B00084BD85B5826085BD85B5816085BD809131
:1002C0006E00816080936E001092810080918100A9
:1002D00082608093810080918100816080938100A1
:1002E000809180008160809380008091B100846063
:1002F0008093B1008091B00081608093B0008091C4
:100300007A00846080937A0080917A008260809382
:100310007A0080917A00816080937A0080917A00DF
:10032000806880937A001092C10061E083E00E94AF
:10033000D70061E082E00E94D70061E084E00E9483
:10034000D70060E088E00E94D70092EA492E90E052
:10035000592E2EE8622E20E0722E88248A9433E0F3
:10036000932EA12CB12C41EBC42E40E0D42E50E0B2
:10037000E52E50E0F52E80E480937C0080917A0099
:10038000806480937A0080917A0086FDFCCFC091D2
:100390007800D0917900E6EBF0E08491F2011491BD
:1003A000F3010491002309F43DC081110E948000F3
:1003B000E02FF0E0EE0FFF1FE859FF4FA591B49139
:1003C0008C91182391E080E009F490E0092F182F18
:1003D0002FEF30E0DE010E94B502A50194010E94DA
:1003E0006502322E232EC22FD32F61E083E00E94BC
:1003F000D7002097D1F460E083E00E94A90001308B
:10040000110509F05CC061E082E00E94A90060E093
:1004100084E00E94A900E114F10409F4ACCF0E9429
:100420000000A9CF10E000E0D3CFCF3FD10511F4F9
:1004300061E0E2CFF6018491833029F140F481300C
:10044000C1F08230D9F0C038D10594F7D4CF8730CD
:1004500031F1883061F18430B1F7809180008062A1
:1004600080938000832D922D90938B0080938A003F
:10047000C6CF84B5806884BD37BCC1CF84B58062E7
:1004800084BD38BCBCCF80918000806880938000A0
:10049000832D922D9093890080938800B0CF809116
:1004A000B00080688093B0003092B300A8CF8091F4
:1004B000B00080628093B0003092B400A0CF60E0C2
:1004C00082E00E94A90061E0A3CF052E97FB1EF4F5
:1004D00000940E947C0257FD07D00E94840207FC12
:1004E00003D04EF40C947C025095409530952195A4
:1004F0003F4F4F4F5F4F0895909580957095619550
:100500007F4F8F4F9F4F0895A1E21A2EAA1BBB1B4E
:10051000FD010DC0AA1FBB1FEE1FFF1FA217B307CF
:10052000E407F50720F0A21BB30BE40BF50B661FE5
:10053000771F881F991F1A9469F7609570958095A9
:1005400090959B01AC01BD01CF010895A29FB00120
:10055000B39FC001A39F700D811D1124911DB29FF7
:10056000700D811D1124911D08950E94A602B7FFF0
:0C0570000895821B930B0895F894FFCFB0
:00000001FF
